S00C00004C6162312E73726563D8
S11300000C942E000C944B000C944B000C944B005D
S11300100C944B000C944B000C944B000C944B0030
S11300200C944B000C944B000C944B000C944B0020
S11300300C944B000C944B000C944B000C944B0010
S11300400C944B000C944B000C944B000C944B0000
S11300500C944B000C944B000C944B0011241FBEC9
S1130060CFEFD4E0DEBFCDBF11E0A0E0B1E0E2ED20
S1130070F0E002C005900D92A030B107D9F721E05D
S1130080A0E0B1E001C01D92A030B207E1F70E94E8
S11300904D000C9467000C9400000E94560084E00C
S11300A0809381002F9A80E090E00895E1E6F0E0EB
S11300B080E88083108287EB8093E50087E080935B
S11300C0E6008093E70080EC8093E4000895F894C0
S10500D0FFCF5C
S9030000FC
